0740000002400222222Novák, Jan          26061200000000019500+00000000019501+00000000000100-000000000001010000300612FIO             
075000000240022222200000029002333330001148734530000000000100200000000000 0201005580000000000260612Novák, Pavel         00203260612
075000000240022222200000029002333330001148734781000000000100100000000000 0201005580000000000260612                     00203260612
075000000240022222200000000000000000001149190193000000000001200000000000 0000000000000000000300612Připsaný úrok        00203300612