0740000002400222222Novák, Jan          17071200000000018505+00000000018501+00000000001500-000000000000060000300912FIO             
075000000240022222200000026000444440001150808074000000001500100000000010 0201005580000000002170712                     00203170712
075000000240022222200000000000000000001152125621000000000002200000000000 0000000000000000000310712Připsaný úrok        00203310712
075000000240022222200000000000000000001155172472000000000002200000000000 0000000000000000000310812Připsaný úrok        00203310812
075000000240022222200000000000000000001158218819000000000002200000000000 0000000000000000000300912Připsaný úrok        00203300912