0740000002400222222Novák, Jan          31071200000000018505+00000000018503+000000000000000000000000000060000300912FIO             
075000000240022222200000000000000000001152125621000000000002200000000000 0000000000000000000310712Připsaný úrok        00203310712
075000000240022222200000000000000000001155172472000000000002200000000000 0000000000000000000310812Připsaný úrok        00203310812
075000000240022222200000000000000000001158218819000000000002200000000000 0000000000000000000300912Připsaný úrok        00203300912